:020000040800F2
:1000000000000220952E0008790E0008810E0008DD
:10001000890E0008910E0008990E000800000000EB
:10002000000000000000000000000000A10E000819
:10003000AF0E000800000000BD0E0008CB0E000847
:10004000E52E0008E52E0008E52E0008E52E000844
:10005000E52E0008E52E0008E52E0008E52E000834
:10006000E52E0008E52E0008E52E0008E52E000824
:10007000E52E0008E52E0008E52E0008E52E000814
:10008000E52E0008E52E0008E52E0008000000001F
:10009000000000000000000000000000E52E000845
:1000A000E52E0008E52E0008E52E0008E52E0008E4
:1000B000D90E0008E52E0008E52E0008E52E000800
:1000C000E52E0008E52E0008E52E0008E52E0008C4
:1000D000E52E0008590F0008E52E0008000000007A
:1000E000E52E0008E52E0008E52E000800000000BF
:1000F000000000000000000000000000E52E0008E5
:1001000000000000E52E0008E52E0008E52E00089E
:1001100000000000000000000000000000000000DF
:10012000E52E0008E52E0008E52E0008E52E000863
:10013000E52E0008000000000000000000000000A4
:10014000000000000000000000000000E52E000894
:10015000E52E0008E52E0008E52E0008E52E000833
:10016000E52E0008E52E0008000000000000000059
:10017000000000000000000000000000000000007F
:1001800000000000E52E0008000000000000000054
:08019000E52E0008E52E000831
:1001A00010B5054C237833B9044B13B10448AFF3B1
:1001B00000800123237010BDBC000020000000005F
:1001C000EC70000808B5034B1BB103490348AFF3BB
:1001D000008008BD00000000C0000020EC70000896
:1001E000034613F8012B002AFBD1181A0138704777
:1001F00001F0FF01102A2BDB10F0070F08D010F8D8
:10020000013B013A8B422DD010F0070F42B3F6D1DB
:10021000F0B441EA012141EA014122F007047FF0F4
:1002200000070023F0E80256083C85EA010586EA4B
:10023000010685FA47F5A3FA87F586FA47F6A5FA87
:1002400087F68EB9EED1F0BC01F0FF0102F0070293
:1002500032B110F8013B013A83EA010313B1F8D13E
:100260000020704701387047002D06BF354603381F
:10027000073815F0010F07D1013015F4807F02BF58
:10028000013015F4C03F0130F0BC0138704700BFA9
:1002900053B94AB9002908BF00281CBF4FF0FF31ED
:1002A0004FF0FF3000F06AB9ADF1080C6DE904CEF3
:1002B00000F006F8DDF804E0DDE9022304B0704741
:1002C0002DE9F047089D0C46002B4ED194468C45F5
:1002D0008646B2FA82F262D94AB1C2F12003914055
:1002E00020FA03F30CFA02FC194300FA02FE4FEA6B
:1002F0001C471FFA8CF6B1FBF7F44FEA1E4307FBCD
:10030000141143EA014304FB06F199420AD91CEB9C
:10031000030304F1FF3080F01281994240F20F8113
:10032000023C6344591A1FFA8EF3B1FBF7F007FB46
:10033000101143EA014300FB06F69E420AD91CEB6A
:10034000030300F1FF3180F0FC809E4240F2F9800F
:10035000634402389B1B40EA044000211DB1D34096
:100360000022C5E90032BDE8F0878B4205D90DB106
:10037000C5E9000100210846F5E7B3FA83F1002939
:1003800046D1A34202D39042C0F0F080861A64EBBB
:1003900003030120002DE6D0C5E90063E3E7002A4E
:1003A00040F09080A1EB0C044FEA1C481FFA8CF738
:1003B0000121B4FBF8F64FEA1E4308FB164443EA5A
:1003C000044307FB06F0984208D91CEB030306F12F
:1003D000FF3402D2984200F2CD8026461C1A1FFA42
:1003E0008EF3B4FBF8F008FB104443EA044300FB2F
:1003F00007F79F4208D91CEB030300F1FF3402D238
:100400009F4200F2B0802046DB1B40EA0640A5E791
:10041000C1F120068B4022FA06F71F4320FA06FCA2
:1004200004FA01F343EA0C03F44000FA01F8380C33
:100430004FEA1349B4FBF0FE1FFA87FC00FB1E4491
:1004400049EA04440EFB0CF9A14502FA01F20AD96B
:100450003C190EF1FF3A80F08480A14540F2818082
:10046000AEF1020E3C44A4EB09041FFA83F9B4FB7D
:10047000F0F300FB134449EA044403FB0CFCA445DD
:1004800007D93C1903F1FF3067D2A44565D9023B77
:100490003C4443EA0E40A0FB0293A4EB0C049C42B4
:1004A000CE469C4651D34ED055B1B8EB0E0364EB0B
:1004B0000C0404FA06F6CB401E43CC40C5E90064A8
:1004C000002150E7C2F1200320FA03F10CFA02FCEC
:1004D00024FA03F394400C434FEA1C4800FA02FE4E
:1004E0001FFA8CF7B3FBF8F008FB1031230C43EA3A
:1004F000014300FB07F1994208D91CEB030300F10B
:10050000FF362CD299422AD9023863445B1AA4B22E
:10051000B3FBF8F108FB113344EA034401FB07F392
:10052000A34208D91CEB040401F1FF3613D2A34205
:1005300011D902396444E41A41EA004139E704461A
:10054000F0E6084606E7C845AED2B9EB020E63EB0B
:10055000070C0138A8E73146EDE7034699E7304636
:10056000D4E7D6467FE7634402384DE70646234684
:1005700008460FE7023E634430E700BF704700BF04
:1005800080B584B000AF03460A46FB801346BB80AB
:10059000FB881B021AB2B7F9043013431BB29BB29B
:1005A000FB81002210210A4803F038F807F10E0100
:1005B0004FF0FF330122074803F06BFD01221021A9
:1005C000034803F02BF800BF1037BD4680BD00BFC5
:1005D000000002406801002080B588B000AF07F13C
:1005E0000C0300221A605A609A60DA601A610023D4
:1005F000BB60324B1B6B314A43F0800313632F4BBC
:100600001B6B03F08003BB60BB6800237B602B4B3C
:100610001B6B2A4A43F001031363284B1B6B03F047
:1006200001037B607B6800233B60244B1B6B234AE8
:1006300043F002031363214B1B6B03F002033B6087
:100640003B6800224FF488711D4802F0E7FF012249
:100650004FF480611B4802F0E1FF4FF48873FB60A8
:1006600001233B6100237B610023BB6107F10C0385
:100670001946134802F04EFE4FF48063FB600123DD
:100680003B6100237B610023BB6107F10C0319462A
:100690000C4802F03FFE4FF48053FB604FF4881388
:1006A0003B6100237B6107F10C031946054802F00A
:1006B00031FE00BF2037BD4680BD00BF003802407C
:1006C000000002400004024080B584B000AF7860B2
:1006D0007B681B68134A93421FD1134B1B78FB7333
:1006E000FB7BB62B08D0FB7BA62B05D0FB7BB42B6A
:1006F00002D0FB7BA42B01D12423FB73FB7B194687
:100700000A4800F037FAFB7B242B01D100F04EFFA2
:1007100001220549064804F091FD00BF1037BD468F
:1007200080BD00BF0010014004010020F80000203F
:10073000BC02002080B582B000AF78607B681B6887
:10074000B3F1804F03D100F031FF01F01BF900BF7E
:100750000837BD4680BD000080B500AF20220349A8
:10076000034800F0EBF900BF80BD00BFD8000020B7
:10077000F800002080B500AF02F0B6FB00F056F89C
:10078000FFF72AFF00F064FA00F09AFA00F014FD77
:1007900000F092FE00F0C2FC214804F093F802F051
:1007A000AFF900F0D3F8FFF7D7FF01221D491E482B
:1007B00004F044FD01210C20FFF7E2FE00210F2090
:1007C000FFF7DEFE0F210A20FFF7DAFE07210B20DC
:1007D000FFF7D6FE00210920FFF7D2FE2F210520CA
:1007E000FFF7CEFE77210420FFF7CAFE0721032082
:1007F000FFF7C6FE4F210220FFF7C2FE00210620B0
:10080000FFF7BEFE00210720FFF7BAFE00210820F7
:10081000FFF7B6FE00F0C6FF00F058F900BFF9E799
:100820006C02002004010020BC02002080B594B0BE
:1008300000AF07F1200330220021184605F03BFDF0
:1008400007F10C0300221A605A609A60DA601A619C
:100850000023BB60274B1B6C264A43F08053136474
:10086000244B1B6C03F08053BB60BB6800237B6090
:10087000214B1B68204A43F4404313601E4B1B6806
:1008800003F440437B607B6801233B624FF4803379
:100890007B620223BB634FF48003FB6304233B644E
:1008A00064237B640223BB640423FB6407F12003FD
:1008B000184602F0CDFE0346002B01D000F01EF8D2
:1008C0000F23FB6002233B6100237B614FF48053C5
:1008D000BB610023FB6107F10C030321184603F001
:1008E0002FF90346002B01D000F008F800BF503765
:1008F000BD4680BD003802400070004080B400AFAB
:1009000072B600BF00BFFDE780B483B000AF78606F
:1009100039603B681B0EDAB27B681A703B681A0CB0
:100920007B680133D2B21A703B681A0A7B680233C3
:10093000D2B21A707B6803333A68D2B21A7000BF21
:100940000C37BD465DF8047B7047000080B586B06B
:1009500000AF1A4A07F10C0392E8030083E8030092
:10096000164A3B1D92E8030083E803003A1D07F195
:100970000C031146184602F0C1F90346002B01D0C2
:10098000FFF7BCFF4FF4645001F092FD0346FB7586
:10099000FB7D042B01D0FFF7B1FF094802F03AFAC2
:1009A00000237B220221002001F006F84FF4427060
:1009B00001F07EFD00BF1837BD4680BD0471000800
:1009C0000C00002080B584B000AF302200213348F5
:1009D00005F071FC324B1B78DBB2002B01D00023F9
:1009E00000E00323FB73FB7B9B015BB243F01C0322
:1009F0005BB2DAB2294B1A70294B1B78DBB2002BA1
:100A000014BF01230023DBB21A46244B5A70234B38
:100A100004229A70214BEC22DA7000212148FFF762
:100A200073FF00212048FFF76FFF1C4B4C221A7305
:100A30001A4B4F225A73194B43229A73174B4C226D
:100A4000DA7300F0F3FCB86000F00AFD7860B96872
:100A50001648FFF759FF79681548FFF755FF082238
:100A60001449154805F015FDB9681448FFF74CFF07
:100A700079681348FFF748FF00F0D8FCB86000F031
:100A8000EFFC7860B9680F48FFF73EFF79680E48C1
:100A9000FFF73AFF00BF1037BD4680BD3801002088
:100AA000B80200203C010020400100204801002045
:100AB0004C0100203001002050010020580100208E
:100AC0005C010020600100206401002080B586B038
:100AD00002AF002001F08FFE0346002B1FD007F16C
:100AE0000802BB1D0093134630221149002001F07B
:100AF000B1FAF860FB68302B13D10E4B1B78DBB2D8
:100B0000002B10D0FFF75EFFFB8807F1080200936F
:100B1000134630220849002001F0F0F804E000BF3D
:100B200002E000BF00E000BF1037BD4680BD00BF3F
:100B300008010020B80200203801002080B485B0F0
:100B400000AFF860B9601346FB80FB68BA681A60B2
:100B5000FB68FA889A80FB6800221A81FB680022F1
:100B60005A81FB680022DA8000BF1437BD465DF869
:100B7000047B704780B483B000AF78600B46FB7095
:100B80007B68DA887B689B889A4201D3012325E041
:100B90007B681B687A6812891344FA781A707B683C
:100BA0001B8901339AB27B681A817B68DB88013329
:100BB0009AB27B68DA807B68DA887B689B889A4285
:100BC00002D37B6800221A817B681A897B689B8824
:100BD0009A4202D37B6800221A81002318460C3700
:100BE000BD465DF8047B704780B483B000AF786089
:100BF00039607B68DB88002B01D1012321E07B6811
:100C00001B687A68528913441A783B681A707B68AB
:100C10005B8901339AB27B685A817B68DB88002B41
:100C200005D07B68DB88013B9AB27B68DA807B6801
:100C30005A897B689B889A4202D37B6800225A813A
:100C4000002318460C37BD465DF8047B7047000052
:100C500080B500AF184B194A1A60174B4FF48272D7
:100C60005A60154B00229A60134B4FF40062DA6011
:100C7000114B00221A61104B00225A610E4B4FF4A7
:100C800000729A610C4B3022DA610B4B00221A621F
:100C9000094B00225A62084B00229A62064B0A2234
:100CA000DA62054803F06CF90346002B01D0FFF728
:100CB00025FE00BF80BD00BF68010020003001405C
:100CC00080B500AF174B184A1A60164B4FF482726A
:100CD0005A60144B00229A60124B0022DA60114BCA
:100CE00000221A610F4B00225A610E4B4FF4007222
:100CF0009A610C4B0822DA610A4B00221A62094BF6
:100D000000225A62074B00229A62064B0A22DA62DC
:100D1000044803F035F90346002B01D0FFF7EEFD40
:100D200000BF80BDC00100200038004080B58CB0FD
:100D300000AF786007F11C0300221A605A609A60C5
:100D4000DA601A617B681B68324A93422CD1002317
:100D5000BB61314B5B6C304A43F4805353642E4B80
:100D60005B6C03F48053BB61BB6900237B612A4B3E
:100D70001B6B294A43F001031363274B1B6B03F0E2
:100D800001037B617B69E023FB6102233B6200235B
:100D90007B620323BB620523FB6207F11C03194638
:100DA0001E4802F0B7FA31E07B681B681C4A934288
:100DB0002CD100233B61184B1B6C174A43F4804332
:100DC0001364154B1B6C03F480433B613B690023A8
:100DD000FB60114B1B6B104A43F0020313630E4B75
:100DE0001B6B03F00203FB60FB684FF46043FB6185
:100DF00002233B6200237B620323BB620523FB6269
:100E000007F11C031946074802F084FA00BF303787
:100E1000BD4680BD00300140003802400000024065
:100E2000003800400004024080B483B000AF0023CB
:100E30007B60104B5B6C0F4A43F4804353640D4B53
:100E40005B6C03F480437B607B6800233B60094B51
:100E50001B6C084A43F080531364064B1B6C03F071
:100E600080533B603B6800BF0C37BD465DF8047B98
:100E7000704700BF0038024080B400AF00BFFDE7FC
:100E800080B400AF00BFFDE780B400AF00BFFDE756
:100E900080B400AF00BFFDE780B400AF00BFFDE746
:100EA00080B400AF00BFBD465DF8047B704780B4DE
:100EB00000AF00BFBD465DF8047B704780B400AF53
:100EC00000BFBD465DF8047B704780B500AF02F0FF
:100ED0005DF800BF80BD000080B500AF4FF08043DB
:100EE0001B6903F00103002B29D04FF080431B69DD
:100EF0004FF0804223F001031361134B1B78DBB2E8
:100F0000002B1CD0114B1B780133DAB20F4B1A7037
:100F10000E4B1B78092B12D90C4B00221A700C4B6C
:100F20001B6801330A4A1360094B1B68B3F5967FAF
:100F300005D3054B00221A70054B00221A600548A4
:100F400003F0ABFD00BF80BDB80200201C020020F2
:100F5000180200202402002080B500AF024804F0EF
:100F600093F900BF80BD00BFBC02002080B400AF79
:100F700001231846BD465DF8047B704780B582B0FA
:100F800000AF7860396005F057FA034616221A6000
:100F90004FF0FF3318460837BD4680BD80B582B09C
:100FA00000AF78604FF0FF317868FFF7E7FF00BFD0
:100FB000FDE780B586B000AFF860B9607A600023C5
:100FC0007B610AE0AFF300800146BB685A1CBA603F
:100FD000CAB21A707B6901337B617A697B689A4275
:100FE000F0DB7B6818461837BD4680BD80B586B0FB
:100FF00000AFF860B9607A6000237B6109E0BB68EC
:101000005A1CBA601B781846AFF300807B69013325
:101010007B617A697B689A42F1DB7B6818461837F6
:10102000BD4680BD80B483B000AF78604FF0FF3321
:1010300018460C37BD465DF8047B704780B483B01A
:1010400000AF786039603B684FF400525A6000236B
:1010500018460C37BD465DF8047B704780B483B0FA
:1010600000AF7860012318460C37BD465DF8047B5D
:10107000704780B485B000AFF860B9607A60002333
:1010800018461437BD465DF8047B704780B586B0BE
:1010900000AF7860144A154BD31A7B617B693B61C2
:1010A000134B1B68002B02D1114B124A1A60104BD4
:1010B0001A687B6813443A699A4207D205F0BCF972
:1010C00003460C221A604FF0FF3309E0084B1B68FF
:1010D000FB60074B1A687B681344054A1360FB6882
:1010E00018461837BD4680BD0000022000040000ED
:1010F000200200208805002080B400AF064BD3F802
:101100008830054A43F47003C2F8883000BFBD46FA
:101110005DF8047B704700BF00ED00E080B586B04D
:1011200000AF07F1080300221A605A609A60DA6083
:101130003B4600221A605A601E4B4FF080421A60F4
:101140001C4B42F20F725A601A4B00229A60194BE4
:1011500040F2E732DA60174B00221A61154B002289
:101160009A61144803F05EFB0346002B01D0FFF7A1
:10117000C5FB4FF48053BB6007F1080319460D48C7
:1011800003F07BFD0346002B01D0FFF7B7FB0023E4
:101190003B6000237B603B461946064803F07CFF1A
:1011A0000346002B01D0FFF7A9FB00BF1837BD464F
:1011B00080BD00BF2402002080B586B000AF07F1DB
:1011C000080300221A605A609A60DA603B460022E7
:1011D0001A605A601D4B1E4A1A601C4B63225A60EB
:1011E0001A4B00229A60194B4FF0FF32DA60174B0E
:1011F00000221A61154B00229A61144803F012FB79
:101200000346002B01D0FFF779FB4FF48053BB60FE
:1012100007F1080319460D4803F02FFD0346002B84
:1012200001D0FFF76BFB00233B6000237B603B4654
:101230001946064803F030FF0346002B01D0FFF7A4
:101240005DFB00BF1837BD4680BD00BF6C020020AB
:10125000000C004080B584B000AF78607B681B68EC
:10126000B3F1804F16D10023FB60164B1B6C154A5F
:1012700043F001031364134B1B6C03F00103FB6089
:10128000FB68002200211C2001F07BFF1C2001F0E4
:1012900094FF12E07B681B680B4A93420DD1002338
:1012A000BB60084B1B6C074A43F008031364054BF3
:1012B0001B6C03F00803BB60BB6800BF1037BD4662
:1012C00080BD00BF00380240000C004090B488B0E0
:1012D00000AF0446084611461A462346FB800346E3
:1012E0007B710B463B711346FB700023FB6140F2A0
:1012F0006C737B8328E0FB6903F26D13FB617B8BCE
:1013000003F003039BB2002B0BD17B8B424AA2FB61
:1013100003125209642101FB02F29B1A9BB2002BBB
:101320000CD17B8B3C4AA2FB0312D2094FF4C8714B
:1013300001FB02F29B1A9BB2002B02D1FB69013325
:10134000FB617B8B01337B837A8BFB889A42D2D300
:10135000324A07F10C0307CA83E8070001237B76B2
:1013600031E07B7E013B20333B4413F8143C1A46AA
:10137000FB691344FB617B7E022B21D1FB8803F0C8
:1013800003039BB2002B0BD1FB88234AA2FB031261
:101390005209642101FB02F29B1A9BB2002B0CD173
:1013A000FB881D4AA2FB0312D2094FF4C87101FB4E
:1013B00002F29B1A9BB2002B02D1FB690133FB6145
:1013C0007B7E01337B767A7E7B799A42C9D33A79E8
:1013D000FB691344013BFB61FB69114A03FB02F209
:1013E000FB784FF4616101FB03F3D11897F82820D3
:1013F00013461B019B1A9B00CA1897F82C30134404
:10140000084A1360084B1B6800225A6200BF20374D
:10141000BD4690BC704700BF1F85EB510C710008A2
:1014200080510100B40200206C02002080B483B01F
:1014300000AF084B5B6A084AA2FB03239B0C7B604E
:10144000064B1A687B68134418460C37BD465DF896
:10145000047B7047000C004083DE1B43B402002075
:1014600090B583B000AF114B5A6A114BA3FB0243F6
:101470009B0C104C04FB03F3D31A002218461146B0
:10148000C7E90001D7E900234FF000004FF0000149
:1014900011000020074A4FF00003FEF7F9FE024654
:1014A0000B46134618460C37BD4690BD000C004055
:1014B00083DE1B4340420F0080B500AF114B124A40
:1014C0001A60104B4FF496525A600E4B00229A60ED
:1014D0000C4B0022DA600B4B00221A61094B0C22E4
:1014E0005A61084B00229A61064B0022DA610548D6
:1014F00003F054FE0346002B01D0FFF7FFF900BFB5
:1015000080BD00BFBC0200200010014080B58AB041
:1015100000AF786007F1140300221A605A609A60E5
:10152000DA601A617B681B681D4A934234D100233C
:101530003B611C4B5B6C1B4A43F010035364194B1B
:101540005B6C03F010033B613B690023FB60154BB0
:101550001B6B144A43F001031363124B1B6B03F024
:101560000103FB60FB684FF4C0637B610223BB6136
:101570000023FB6103233B6207237B6207F1140313
:101580001946094801F0C6FE00220021252001F07D
:10159000F8FD252001F011FE00BF2837BD4680BDB3
:1015A00000100140003802400000024080B500AF4A
:1015B00040F203120021024804F07DFE00BF80BD0E
:1015C00004030020B0B588B002AF78606B4978683A
:1015D00004F0D6FE0346002B40F0CB800023FB74C2
:1015E0000023BB7400237B7400233B740023FB7334
:1015F0000023BB730023BB816149786804F064FE5B
:10160000786183E0FB7C012B02D0092B39D075E097
:101610007869FEF7E5FD0346052B6CD97B691B78DD
:10162000303BDBB21A46920013445B00DAB27B69AE
:1016300001331B781344DBB2303BBB747B6902334C
:101640001B78303BDBB21A46920013445B00DAB2DF
:101650007B6903331B781344DBB2303B7B747B69BB
:1016600004331B78303BDBB21A46920013445B0014
:10167000DAB27B6905331B781344DBB2303B3B7431
:1016800039E07869FEF7ACFD0346062B35D17B695E
:101690001B78303BDBB21A46920013445B00DAB28F
:1016A0007B6901331B781344DBB2303BFB737B69EE
:1016B00002331B78303BDBB21A46920013445B00C6
:1016C000DAB27B6903331B781344DBB2303BBB7364
:1016D0007B6904331B78303B9BB21A46920013445B
:1016E0005B009BB27A690532127813449BB203F512
:1016F000F463BB8101E000BF00E000BF204900208F
:1017000004F0E2FD7861FB7C0133FB747B69002B04
:101710007FF478AFBB89B3F5FD6F2BD3194ABB7C3F
:101720001370194A7B7C1370184A3B7C1370184A5B
:10173000FB7B1370174ABB7B1370174ABB8913805E
:10174000154B1888134B1978114B1C780D4B1D78CD
:101750000D4B1B780D4A1278019200932B462246BE
:10176000FFF7B4FD0D4B01221A700D4B00221A60D9
:1017700000E000BF1837BD46B0BD00BF18710008BB
:101780001C71000807040020080400200904002040
:101790000D0400200C0400200A040020B8020020E0
:1017A0001802002080B582B000AFBB1D1946674803
:1017B000FFF71AFA0346FB71FB79002B40F0BD805E
:1017C000634B1B78002B02D0012B1BD0BAE0BB79F6
:1017D000242B40F0B4805E4B01221A705C4B002237
:1017E0005A705B4B00229A70594B9B785A1CD1B2AD
:1017F000574A91701946BA79554B0B44DA7000F08C
:10180000B7F89CE0524B9B78762B04D900F0BAF8DD
:10181000FFF7CCFE96E04E4B9B785A1CD1B24C4A57
:1018200091701946BA794A4B0B44DA7000F0B4F85B
:10183000BB790A2B40F0858000F0A4F8444B9B78DC
:101840001A46434B13440022DA704249424804F0DE
:1018500097FD0346002B6DD03F48FFF7B3FE0121F3
:101860000320FEF78DFE01210620FEF789FE3B4B8B
:101870001B783B4AA2FB0323DB08DBB21A46394B39
:101880009B5C19460220FEF77BFE344B1A78344BE2
:10189000A3FB0213D9080B469B000B445B00D31A31
:1018A000DBB21A462F4B9B5C19460120FEF768FEFF
:1018B0002D4B1B782A4AA2FB0323DB08DBB21A4616
:1018C000284B9B5C19460520FEF75AFE264B1A78DA
:1018D000234BA3FB0213D9080B469B000B445B0070
:1018E000D31ADBB21A461F4B9B5C19460420FEF745
:1018F00047FE1E4B1B781A4AA2FB0323DB08DBB210
:101900001A46184B9B5C19460820FEF739FE174B08
:101910001A78134BA3FB0213D9080B469B000B4408
:101920005B00D31ADBB21A460E4B9B5C19460720AC
:10193000FEF726FEFFF73AFE03E000BF02E000BF1D
:1019400000E000BF0837BD4680BD00BFF8000020A2
:101950000403002020710008070300200904002070
:10196000CDCCCCCC000000200804002007040020CF
:1019700080B500AF024802F0FFFF00BF80BD00BF8E
:101980002402002080B500AF024803F057F800BFE2
:1019900080BD00BF2402002080B500AF054803F0E1
:1019A0004DF8044B1B6800225A62024802F0E4FF23
:1019B00000BF80BD2402002090B589B000AF04466E
:1019C000084611461A462346FB710346BB710B4677
:1019D000BB801346FB700023FB83FB79072B02D9E6
:1019E0004FF0FF330EE1BB7903F00F03013B0D2BEA
:1019F0002CD801A252F823F0311A0008531A00081B
:101A0000531A0008531A00084D1A00084D1A00080E
:101A10004D1A00084D1A00084D1A0008531A000804
:101A2000531A00084D1A00084D1A0008531A0008EE
:101A300007F10803042219464FF4706000F0D2FD4C
:101A4000BB68002B07D16FF00203DBE06FF00403EB
:101A5000D8E000BF00E000BFFB7803F00403002BD8
:101A600002D06FF00503CDE0FB78002B28D0BB79C6
:101A7000012B02D0022B08D022E0FB7803F02103D7
:101A8000002B1AD16FF00503BCE0FB7803F02003B4
:101A9000002B06D097F90330002B02DB6FF0050313
:101AA000B0E0FB7803F01003002B08D097F9033067
:101AB000002B04DB6FF00503A4E000BF00E000BFD3
:101AC000FB79184600F0ACF8FB799B000133DB0092
:101AD000184697F9033023F00F035AB297F90630EE
:101AE00013435BB2DBB2194600F02EFDBB88002B1E
:101AF00010D1464B1B885A1C91B2444A1180BB80BE
:101B0000424B1B884FF6F072934203D13F4B4FF488
:101B100040421A80FB799B000133DB0003F58063B0
:101B20001A46BB881B0A9BB2DBB21946104600F06E
:101B30000BFDFB799B000133DB0003F5A0631A4624
:101B4000BB88DBB21946104600F0FEFCFB799B0017
:101B50000133DB0003F580730121184600F0F4FC2B
:101B600000BFFB799B000133DB0003F5807318464F
:101B700000F09EFC0346002BF3D1FB79012202FA10
:101B800003F31BB2DB431AB2214B1B881BB2134079
:101B90001BB29AB21E4B1A80FB7803F00102FB794C
:101BA00002FA03F31AB21A4B1B881BB213431BB27F
:101BB0009AB2174B1A80FB79012202FA03F31BB287
:101BC000DB431AB2134B1B881BB213401BB29AB2F1
:101BD000104B1A80FB79104A002122F81310FB7970
:101BE0000E4A0021D15400BFFB799B000133DB007A
:101BF00003F54073184600F05BFC0346002BF3D05E
:101C000097F9073018462437BD4690BD28000020BC
:101C10000E040020100400201404002024040020DE
:101C200080B582B000AF0346FB71FB79072B02D968
:101C30004FF0FF3355E0FB799B000133DB0003F5E8
:101C400080731021184600F07FFC00BFFB799B00D9
:101C50000133DB0003F58073184600F029FC0346CE
:101C6000002BF3D1FB799B000133DB0003F50073FC
:101C70001F21184600F068FCFB79012202FA03F3E9
:101C80001BB2DB431AB2194B1B881BB213401BB2A9
:101C90009AB2164B1A80FB79012202FA03F31BB2A7
:101CA000DB431AB2124B1B881BB213401BB29AB211
:101CB0000F4B1A80FB790F4A002122F81310FB7991
:101CC0000D4A0021D15400BFFB799B000133DB009A
:101CD00003F54073184600F0EBFB0346002BF3D1ED
:101CE000012318460837BD4680BD00BF0E04002002
:101CF00010040020140400202404002080B586B0C5
:101D000002AFB9607B600346FB731346BB81BA899F
:101D1000F87B042301933B8B00937B68B96800F048
:101D200005F8034618461037BD4680BD80B586B01D
:101D300000AFB9607B600346FB731346BB81002391
:101D4000FB752023BB750023BB82FB7B072B02D9CD
:101D50004FF0FF3377E1FB7B9B000133DB0018463C
:101D600000F0A6FB034603F00F03042B02DC022B5A
:101D700005DA01E00B2B02D06FF0040363E100BF32
:101D8000FB7B9B000133DB00184600F091FB034610
:101D9000FB75FB7D042B24D097F82430102B02D147
:101DA0006FF004034FE197F82430042B16D1FB7D2C
:101DB0000A2B02D0FB7D0B2B02D16FF0040342E112
:101DC000FB7B9B000133DB0003F540630422796851
:101DD000184600F067FC2023BB7502E06FF00B0390
:101DE00031E1FB7D03F00303022B22D13B8C002B5E
:101DF0001CD0FB7B9B000133DB0003F580531A46AC
:101E00003B8C1B0A9BB2DBB21946104600F09CFBD0
:101E1000FB7B9B000133DB0003F588531A463B8CA8
:101E2000DBB21946104600F08FFB02E06FF00A03A8
:101E300009E1BB89002B02D16FF00D0303E17B6840
:101E40001B783B613B691B027A68013212781344AC
:101E50003B613B691B027A680232127813443B6192
:101E60003B691B027A680332127813443B613B6979
:101E7000002B0ED1FB7B9B000133DB00184600F0EA
:101E800017FB034603F00403042B02D06FF00B038F
:101E9000D9E03B8C002B0ED1FB7B9B000133DB0098
:101EA000184600F005FB034603F00403042B02D0A0
:101EB0006FF00A03C7E0FB7B9B000133DB0003F5F7
:101EC0004073184600F0F4FA0346FB75FB7D422B85
:101ED00008D0FB7D222B05D0FB7D322B02D06FF08A
:101EE0000603B0E0FB7B9B000133DB0003F540639E
:101EF00004227968184600F0D5FBFB7B9B00013378
:101F0000DB0003F580531A463B8C1B0A9BB2DBB205
:101F10001946104600F018FBFB7B9B000133DB00E9
:101F200003F588531A463B8CDBB21946104600F085
:101F30000BFBFB7B9B000133DB0003F5F8531846DA
:101F400000F0B6FA03469B02BB82BA89BB8A9A426A
:101F500001D9BB8ABB81FB7B184600F003FC03461A
:101F6000BB82FB7B9B000133DB0003F5407318460B
:101F700000F09EFA0346002B02D16FF0030362E0EB
:101F8000334B1B881A46FB7B42FA03F303F0010331
:101F9000002B05D0BA89BB8A9A4201D9002352E0AE
:101FA000BA89BB8A9A4200D9D5E700BFBA89FB7BC0
:101FB000B968184600F068FCFB7B9B000133DB002E
:101FC00003F580732021184600F0BEFA00BFFB7BAA
:101FD0009B000133DB0003F58073184600F068FABC
:101FE0000346002BF3D1FB7B9B000133DB0003F5A1
:101FF0000073184600F05CFA034603F01F03FB75FC
:10200000FB7D03F01003002B0CD0FB7B9B00013306
:10201000DB0003F500731021184600F095FA00BFAD
:10202000BB8910E0FB7D03F00803002BDBD0FB7BBA
:102030009B000133DB0003F500730821184600F014
:1020400083FA6FF00C0318461837BD4680BD00BFF9
:102050000E04002080B588B002AFB9607B600346F3
:10206000FB731346BB810423FB7407F113037B61ED
:10207000BA89F87B7B6901933B6A00937B68B968F6
:1020800000F006F8034618461837BD4680BD00002C
:1020900080B588B000AFB9607B600346FB73134620
:1020A000BB810023FB83FB7B072B02D94FF0FF335F
:1020B000F5E1FB7B9B000133DB00184600F0F8F9EB
:1020C00003467B777B7F03F00F03042B02DC022B9C
:1020D00005DA01E00B2B02D06FF00403DFE100BF53
:1020E000BB89002B02D16FF00D03D8E1FB7B964A30
:1020F00032F81330002B28D1FB7B184600F07BFB15
:102100000346FB83FB7B9B000133DB0003F540733D
:10211000184600F0CDF90346002B02D16FF00303FF
:10212000BDE18A4B1B881A46FB7B42FA03F303F09E
:102130000103002B04D0FB8B002B01D10023AEE167
:10214000FB8B002B00D1D7E700BF7B7F03F0070399
:102150000E2B8CBF01220022D2B2002A40F05B81FC
:10216000012202FA03F344F204421A40002A14BF87
:1021700001220022D2B2002A14D140F608021A40ED
:10218000002A14BF01220022D2B2002A40F0E280CD
:1021900003F01003002B14BF01230023DBB2002B3C
:1021A00070D138E1FB7B684A32F81330002B51D1F3
:1021B00007F11401FB7B0822184600F0BFFBFB7BF4
:1021C0009B000133DB0003F580734021184600F0CB
:1021D000BBF900BFFB7B9B000133DB0003F5807381
:1021E000184600F065F90346002BF3D13A7D7B6871
:1021F0001A707B6801337A7D1A707B680233BA7D6E
:102200001A707B680333FA7D1A703B7E1A46BB6AEC
:102210001A80BB6A1B881B029BB27A7E13449AB257
:10222000BB6A1A80BA7EFB7B1146474A22F813101C
:10223000FB7B454A32F813301B029AB2FB7E1946EB
:10224000FB7B0A4491B2404A22F81310FB7B404AC0
:102250008021D154FB7B3C4A32F81330BA899A4230
:1022600002D2BB89FB8304E0FB7B374A32F8133090
:10227000FB83FB8BBB81FA8BFB7BB968184600F0B4
:102280005DFBD5E0FB7B304A32F81330002B45D1A3
:1022900007F11401FB7B0222184600F04FFBFB7B89
:1022A0009B000133DB0003F580734021184600F0EA
:1022B0004BF900BFFB7B9B000133DB0003F5807310
:1022C000184600F0F5F80346002BF3D13A7DFB7B6E
:1022D00011461D4A22F81310FB7B1B4A32F81330BB
:1022E0001B029BB27A7D13449AB2FB7B023A91B2F5
:1022F000154A22F81310FB7B134A32F8133040F2D0
:10230000EA52934206D9FB7B1846FFF789FC6FF42B
:102310007A73C4E0FB7B0E4A8021D154FB7B0A4ACE
:1023200032F81330BA899A4202D2BB89FB8304E0A7
:10233000FB7B054A32F81330FB83FA8BFB7BB968D1
:10234000184600F0FBFA73E0140400200E0400208D
:1023500024040020FB7B544A32F81330002B66D152
:1023600007F11401FB7B0622184600F0E7FAFB7B1D
:102370009B000133DB0003F580734021184600F019
:10238000E3F800BFFB7B9B000133DB0003F58073A8
:10239000184600F08DF80346002BF3D13A7D7B6898
:1023A0001A707B6801337A7D1A707B680233BA7DBC
:1023B0001A707B680333FA7D1A703A7EFB7B1146F4
:1023C000394A22F81310FB7B374A32F813301B02CC
:1023D0009AB27B7E1946FB7B0A4491B2324A22F8BC
:1023E0001310FB7B314A8021D154FB7B2E4A32F8FB
:1023F0001330BA899A4202D2BB89FB8304E0FB7B8B
:10240000294A32F81330FB83FA8BFB7BB9681846F4
:1024100000F094FA0BE0FA8BFB7B1146184600F0B3
:10242000E7FAFB7B2049FA8B21F8132000E000BF7C
:10243000FB7B9B000133DB0003F5807340211846D2
:1024400000F082F800BFFB7B9B000133DB0003F54B
:102450008073184600F02CF80346002BF3D1FB7B69
:10246000114A32F81310FB7BFA8B8A1A91B20E4A8A
:1024700022F81310FB7B0C4A32F81330002B09D0E2
:10248000FB7B0A4AD25CFB7B42F00102D1B2074AD5
:10249000D15403E0FB7B054A0021D154FB8B184645
:1024A0002037BD4680BD00BF140400202404002056
:1024B00080B584B000AF7860224BDB689847214B31
:1024C0005B6998471F4B5B6A002B03D01D4B9B6ACF
:1024D000002B14D11B4B1B6A7A68120CD2B2104627
:1024E0009847184B1B6A7A68120AD2B2104698476E
:1024F000144B1B6A7A68D2B21046984711E07B6889
:102500001B0CDBB23B737B681B0ADBB27B737B6803
:10251000DBB2BB730B4B9B6A07F10C020321104625
:102520009847084BDB6998470346FB73054B9B694B
:102530009847044B1B699847FB7B18461037BD46EC
:1025400080BD00BF2C00002080B584B000AF786053
:102550000B46FB70224BDB689847214B5B69984721
:102560007B6843F004037B601D4B9B6A002B19D1F1
:102570001B4B1B6A7A68120CD2B210469847184B54
:102580001B6A7A68120AD2B210469847144B1B6A2B
:102590007A68D2B210469847114B1B6AFA781046F7
:1025A000984713E07B681B0CDBB23B737B681B0A0C
:1025B000DBB27B737B68DBB2BB73FB78FB73084BCE
:1025C0009B6A07F10C02042110469847044B9B6953
:1025D0009847034B1B69984700BF1037BD4680BD25
:1025E0002C00002090B587B000AFF860B9601346AA
:1025F000FB802B4BDB689847294B5B699847284B3E
:102600005B6A002B03D0264B9B6A002B26D1244B00
:102610001B6AFA68120CD2B210469847204B1B6A0C
:10262000FA68120AD2B2104698471D4B1B6AFA6824
:10263000D2B2104698470023FB820AE0184BDB69B0
:10264000FA8AB9688C18984703462370FB8A0133CD
:10265000FB82FA8AFB889A42F0D317E0FB681B0CD6
:10266000DBB23B74FB681B0ADBB27B74FB68DBB23A
:10267000BB740B4B9B6A07F110020321104698476D
:10268000074B5B6AFA881146B8689847044B9B6908
:102690009847034B1B69984700BF1C37BD4690BD48
:1026A0002C00002080B586B000AFF860B9601346FA
:1026B000FB802B4BDB689847294B5B699847FB688D
:1026C00043F00403FB60264B9B6A002B26D1244B6E
:1026D0001B6AFA68120CD2B210469847204B1B6A4C
:1026E000FA68120AD2B2104698471D4B1B6AFA6864
:1026F000D2B2104698470023FB820AE0184B1B6AAF
:10270000FA8AB9680A44127810469847FB8A01335E
:10271000FB82FA8AFB889A42F0D317E0FB681B0C15
:10272000DBB23B74FB681B0ADBB27B74FB68DBB279
:10273000BB740B4B9B6A07F11002032110469847AC
:10274000074B9B6AFA881146B8689847044B9B6907
:102750009847034B1B69984700BF1837BD4680BD9B
:102760002C00002090B585B000AF0346FB7100231C
:10277000FB810023BB81FB799B000133DB0003F568
:1027800000531846FFF794FE0346BB81BB891B022A
:102790009CB2FB799B000133DB0003F50453184620
:1027A000FFF786FE03462344BB81BB89002B19D06B
:1027B000FB799B000133DB0003F500531846FFF75C
:1027C00077FE0346FB81FB891B029CB2FB799B00D1
:1027D0000133DB0003F504531846FFF769FE034697
:1027E0002344FB81FA89BB899A42C4D1FB891846EC
:1027F0001437BD4690BD90B585B000AF0346FB7160
:102800000023FB810023BB81FB799B000133DB00AC
:1028100003F518531846FFF74BFE0346BB81BB89EF
:102820001B029CB2FB799B000133DB0003F51C53B8
:102830001846FFF73DFE03462344BB81BB89002BAE
:1028400019D0FB799B000133DB0003F518531846C0
:10285000FFF72EFE0346FB81FB891B029CB2FB792E
:102860009B000133DB0003F51C531846FFF720FEE5
:1028700003462344FB81FA89BB899A42C4D1FB8970
:1028800018461437BD4690BD90B585B000AF0346DD
:102890003960FB711346BB800023FB810023BB60C2
:1028A000BB88002B46D0FB799B000133DB0003F58E
:1028B00010531846FFF7FCFD03461B029CB2FB7940
:1028C0009B000133DB0003F514531846FFF7F0FDBE
:1028D00003462344FB81FB891B02FA7992000232F2
:1028E000D2001344BB60BB881A463968B868FFF74A
:1028F000D9FEFA89BB881344FB81FB799B00013325
:10290000DB0003F510531A46FB891B0A9BB2DBB2AE
:1029100019461046FFF718FEFB799B000133DB00D8
:1029200003F514531A46FB89DBB219461046FFF72C
:102930000BFE00E000BF1437BD4690BD90B585B0DA
:1029400000AF03463960FB711346BB800023FB8157
:102950000023BB60BB88002B46D0FB799B00013372
:10296000DB0003F520531846FFF7A2FD03461B02C8
:102970009CB2FB799B000133DB0003F5245318461E
:10298000FFF796FD03462344FB81FB891B02FA797E
:1029900092000332D2001344BB60BB881A463968E8
:1029A000B868FFF71FFEFA89BB881344FB81FB79E7
:1029B0009B000133DB0003F520531A46FB891B0AF9
:1029C0009BB2DBB219461046FFF7BEFDFB799B00B8
:1029D0000133DB0003F524531A46FB89DBB21946A9
:1029E0001046FFF7B1FD00E000BF1437BD4690BDB3
:1029F00090B585B000AF03460A46FB711346BB8015
:102A00000023FB81FB799B000133DB0003F520539E
:102A10001846FFF74DFD03461B029CB2FB799B0055
:102A20000133DB0003F524531846FFF741FD03464D
:102A30002344FB81FA89BB881344FB81FB799B000B
:102A40000133DB0003F520531A46FB891B0A9BB2B6
:102A5000DBB219461046FFF777FDFB799B00013387
:102A6000DB0003F524531A46FB89DBB219461046F6
:102A7000FFF76AFD00BF1437BD4690BD80B500AFBB
:102A800000224FF48071024800F0C8FD00BF80BDF5
:102A90000000024080B500AF01224FF4807102486F
:102AA00000F0BCFD00BF80BD0000024080B584B0D6
:102AB00002AFFF23FB710023BB71BA1DF91D4FF05C
:102AC000FF3300930123044801F027FCBB7918462B
:102AD0000837BD4680BD00BFC001002080B582B070
:102AE00000AF0346FB71F91D4FF0FF33012203488D
:102AF00001F0CFFA00BF0837BD4680BDC0010020FD
:102B000080B500AF0449054800F05AF8044905486B
:102B100000F07CF800BF80BD952A00087D2A0008DF
:102B2000DD2A0008AD2A000880B400AF00BFBD4612
:102B30005DF8047B704780B400AF00BFBD465DF810
:102B4000047B704780B400AF00BFBD465DF8047BD6
:102B5000704780B400AF00BFBD465DF8047B70478E
:102B600080B483B000AF78607B681B78DBB2184616
:102B70000C37BD465DF8047B704780B483B000AF6E
:102B800078600B46FB707B68FA781A7000BF0C37D0
:102B9000BD465DF8047B704780B400AF0023184643
:102BA000BD465DF8047B704780B483B000AF034638
:102BB000FB7100BF0C37BD465DF8047B7047000019
:102BC00080B483B000AF786039607B68002B02D09E
:102BD0003B68002B06D10A4B0A4A5A61084B0A4A45
:102BE0009A6106E0064A7B685361054A3B68936137
:102BF00000BF00BF0C37BD465DF8047B704700BFC7
:102C00002C000020452B0008532B000880B483B013
:102C100000AF7860396000BF0F4B1B8803F400736E
:102C2000002BF9D07B68002B02D03B68002B06D12B
:102C3000094B0A4ADA61084B094A1A6206E0064A59
:102C40007B68D361044A3B68136200BF00BF0C3746
:102C5000BD465DF8047B70472C000020992B0008CE
:102C6000A92B000880B586B000AF3B1D062219468F
:102C70004FF41060FFF7B6FC07F114030422194665
:102C80004FF48070FFF7AEFC07F1100304221946E1
:102C90004FF4A060FFF7A6FC07F10C0304221946CD
:102CA0004FF47060FFF79EFC80210020FFF74CFC82
:102CB0000020FFF7FDFB3B1D062219464FF4106074
:102CC000FFF7F0FC07F11403042219464FF480705B
:102CD000FFF7E8FC07F11003042219464FF4A06047
:102CE000FFF7E0FC07F10C03042219464FF4706073
:102CF000FFF7D8FC00BF1837BD4680BD80B584B053
:102D000000AF786039600023BB73FFF7ABFF7B68CF
:102D1000002B3BD00023BB730023FB7315E097F916
:102D20000F307A6813441A78BB7B1344DBB2BB7351
:102D300097F90E30102B02DD4FF0FF3366E097F964
:102D40000F30DBB20133DBB2FB7397F90F30072B87
:102D5000E5DD0023FB7315E097F90F309B0001338D
:102D6000DB0003F5F853184697F90F307A681344DF
:102D70001B781946FFF7E8FB97F90F30DBB20133F8
:102D8000DBB2FB7397F90F30072BE5DD3B68002BB7
:102D90003BD00023BB730023FB7315E097F90F3082
:102DA0003A6813441A78BB7B1344DBB2BB7397F9C0
:102DB0000E30102B02DD4FF0FF3327E097F90F3074
:102DC000DBB20133DBB2FB7397F90F30072BE5DD84
:102DD0000023FB7315E097F90F309B000133DB00F4
:102DE00003F5F053184697F90F303A6813441B78EF
:102DF0001946FFF7A9FB97F90F30DBB20133DBB2BD
:102E0000FB7397F90F30072BE5DD002318461037C9
:102E1000BD4680BD80B582B000AF78607B68062279
:102E200019464FF41060FFF73DFC7B680E33042217
:102E300019464FF48070FFF735FC7B680A33042293
:102E400019464FF4A060FFF72DFC7B68063304227F
:102E500019464FF47060FFF725FC7B689A7C0B4B9A
:102E60001A707B68DA7C094B5A707B681A7D074BB5
:102E70009A707B685A7D054BDA707B689A7D044BAB
:102E80001A7000BF0837BD4680BD00BF2C0400206B
:102E900030040020DFF834D0FEF72EF90C480D493D
:102EA0000D4A002302E0D458C4500433C4188C42A5
:102EB000F9D30A4A0A4C002301E013600432A2420B
:102EC000FBD303F0BFFAFDF755FC7047000002206A
:102ED00000000020BC0000202C720008BC00002074
:102EE00084050020FEE7000080B500AF0E4B1B6894
:102EF0000D4A43F4007313600B4B1B680A4A43F4FA
:102F000080631360084B1B68074A43F480731360A7
:102F1000032000F02BF90F2000F008F8FDF784FFE4
:102F20000023184680BD00BF003C024080B582B03F
:102F300000AF7860124B1A68124B1B7819464FF499
:102F40007A73B3FBF1F3B2FBF3F3184600F043F9E5
:102F50000346002B01D001230EE07B680F2B0AD81B
:102F6000002279684FF0FF3000F00BF9064A7B68C9
:102F70001360002300E0012318460837BD4680BDDA
:102F8000240000205C0000205800002080B400AF26
:102F9000064B1B781A46064B1B681344044A136001
:102FA00000BFBD465DF8047B704700BF5C00002099
:102FB0003404002080B400AF034B1B681846BD46A4
:102FC0005DF8047B704700BF3404002080B485B0F6
:102FD00000AF78607B6803F00703FB600C4BDB6895
:102FE000BB60BA684FF6FF031340BB60FB681A0270
:102FF000BB68134343F0BF6343F40033BB60044A30
:10300000BB68D36000BF1437BD465DF8047B7047D2
:1030100000ED00E080B400AF044BDB681B0A03F056
:1030200007031846BD465DF8047B704700ED00E0DD
:1030300080B483B000AF0346FB7197F90730002BD3
:103040000BDBFB7903F01F02074997F907305B0997
:10305000012000FA02F241F8232000BF0C37BD46E0
:103060005DF8047B704700BF00E100E080B483B0EE
:1030700000AF03463960FB7197F90730002B0ADB7C
:103080003B68DAB20C4997F907301201D2B20B440F
:1030900083F800230AE03B68DAB20849FB7903F0C1
:1030A0000F03043B1201D2B20B441A7600BF0C3757
:1030B000BD465DF8047B704700E100E000ED00E0F4
:1030C00080B489B000AFF860B9607A60FB6803F043
:1030D0000703FB61FB69C3F10703042B28BF04232B
:1030E000BB61FB690433062B02D9FB69033B00E09B
:1030F00000237B614FF0FF32BB6902FA03F3DA432E
:10310000BB681A407B699A404FF0FF317B6901FA36
:1031100003F3D9437B680B40134318462437BD465D
:103120005DF8047B7047000080B582B000AF786026
:103130007B68013BB3F1807F01D301230FE00A4A92
:103140007B68013B53600F214FF0FF30FFF78EFF8C
:10315000054B00229A60044B07221A600023184690
:103160000837BD4680BD00BF10E000E080B582B0EA
:1031700000AF78607868FFF729FF00BF0837BD46C9
:1031800080BD80B586B000AF0346B9607A60FB733E
:1031900000237B61FFF73EFF78617A68B968786940
:1031A000FFF78EFF024697F90F3011461846FFF7DA
:1031B0005DFF00BF1837BD4680BD80B582B000AF4F
:1031C0000346FB7197F907301846FFF731FF00BF40
:1031D0000837BD4680BD80B582B000AF78607868A2
:1031E000FFF7A2FF034618460837BD4680BD80B5ED
:1031F00084B000AF78607B689B6DFB60FFF7DAFE00
:10320000B8607B6893F83530DBB2022B08D07B685E
:1032100080225A657B68002283F83420012352E023
:103220007B681B681A687B681B6822F016021A60AC
:103230007B681B685A697B681B6822F080025A61B0
:103240007B681B6C002B03D17B689B6C002B07D029
:103250007B681B681A687B681B6822F008021A608A
:103260007B681B681A687B681B6822F001021A6081
:1032700013E0FFF79FFE0246BB68D31A052B0CD95B
:103280007B6820225A657B68032283F835207B689F
:10329000002283F83420032315E07B681B681B6839
:1032A00003F00103002BE4D17B68DB6D3F229A40E1
:1032B000FB689A607B68012283F835207B680022D6
:1032C00083F83420002318461037BD4680BD80B4F3
:1032D00083B000AF78607B6893F83530DBB2022BA7
:1032E00004D07B6880225A6501230CE07B680522AC
:1032F00083F835207B681B681A687B681B6822F09E
:1033000001021A60002318460C37BD465DF8047BA5
:103310007047000080B489B000AF78603960002346
:103320007B6100233B610023BB610023FB6159E10A
:103330000122FB6902FA03F37B613B681B687A692F
:1033400013403B613A697B699A4240F048813B688F
:103350005B6803F00303012B05D03B685B6803F057
:103360000303022B30D17B689B68BB61FB695B0068
:10337000032202FA03F3DB43BA691340BB613B68E3
:10338000DA68FB695B0002FA03F3BA691343BB61B5
:103390007B68BA699A607B685B68BB610122FB69E4
:1033A00002FA03F3DB43BA691340BB613B685B6815
:1033B0001B0903F00102FB6902FA03F3BA69134324
:1033C000BB617B68BA695A603B685B6803F00303C2
:1033D000032B17D07B68DB68BB61FB695B000322B2
:1033E00002FA03F3DB43BA691340BB613B689A6896
:1033F000FB695B0002FA03F3BA691343BB617B68A4
:10340000BA69DA603B685B6803F00303022B23D1DF
:10341000FB69DA087B68083253F82230BB61FB692C
:1034200003F007039B000F2202FA03F3DB43BA69A0
:103430001340BB613B681A69FB6903F007039B00FB
:1034400002FA03F3BA691343BB61FB69DA087B68CC
:103450000832B96943F822107B681B68BB61FB69BD
:103460005B00032202FA03F3DB43BA691340BB613A
:103470003B685B6803F00302FB695B0002FA03F33D
:10348000BA691343BB617B68BA691A603B685B68C1
:1034900003F44033002B00F0A2800023FB60574B65
:1034A0005B6C564A43F480435364544B5B6C03F4A7
:1034B0008043FB60FB68524AFB699B08023352F869
:1034C0002330BB61FB6903F003039B000F2202FA68
:1034D00003F3DB43BA691340BB617B68494A9342FB
:1034E00019D07B68484A934213D07B68474A93427D
:1034F0000DD07B68464A934207D07B68454A934289
:1035000001D1042308E0072306E0032304E002239B
:1035100002E0012300E00023FA6902F003029200B6
:103520009340BA691343BB613549FB699B08023379
:10353000BA6941F82320384B9B68BB613B69DB4388
:10354000BA691340BB613B685B6803F48013002BCE
:1035500003D0BA693B691343BB612F4ABB699360CF
:103560002D4BDB68BB613B69DB43BA691340BB6130
:103570003B685B6803F40013002B03D0BA693B6916
:103580001343BB61244ABB69D360234B5B68BB61B7
:103590003B69DB43BA691340BB613B685B6803F47A
:1035A0000033002B03D0BA693B691343BB611A4A4D
:1035B000BB695360184B1B68BB613B69DB43BA694D
:1035C0001340BB613B685B6803F48033002B03D07E
:1035D000BA693B691343BB610F4ABB691360FB695E
:1035E0000133FB61FB690F2B7FF6A2AE00BF00BF6A
:1035F0002437BD465DF8047B704700BF00380240A9
:10360000003801400000024000040240000802406F
:10361000000C024000100240003C014080B483B026
:1036200000AF78600B467B8013467B707B78002B65
:1036300003D07A887B689A6103E07B881A047B68F0
:103640009A6100BF0C37BD465DF8047B70470000EF
:1036500080B586B000AF78607B68002B01D1012374
:1036600067E27B681B6803F00103002B75D0884B71
:103670009B6803F00C03042B0CD0854B9B6803F074
:103680000C03082B12D1824B5B6803F48003B3F563
:10369000800F0BD17E4B1B6803F40033002B5BD0F3
:1036A0007B685B68002B57D1012342E27B685B6833
:1036B000B3F5803F06D1764B1B68754A43F48033DF
:1036C00013601DE07B685B68B3F5A02F0CD1704BD5
:1036D0001B686F4A43F4802313606D4B1B686C4A70
:1036E00043F4803313600BE0694B1B68684A23F492
:1036F00080331360664B1B68654A23F48023136094
:103700007B685B68002B13D0FFF754FC386108E03E
:10371000FFF750FC02463B69D31A642B01D90323FF
:1037200007E25B4B1B6803F40033002BF0D014E07E
:10373000FFF740FC386108E0FFF73CFC02463B69BC
:10374000D31A642B01D90323F3E1514B1B6803F413
:103750000033002BF0D100E000BF7B681B6803F052
:103760000203002B63D04A4B9B6803F00C03002B31
:103770000BD0474B9B6803F00C03082B1CD1444B28
:103780005B6803F48003002B16D1414B1B6803F0E8
:103790000203002B05D07B68DB68012B01D00123DD
:1037A000C7E13B4B1B6823F0F8027B681B69DB0019
:1037B000374913430B603AE07B68DB68002B20D06D
:1037C000344B01221A60FFF7F5FB386108E0FFF780
:1037D000F1FB02463B69D31A022B01D90323A8E16E
:1037E0002B4B1B6803F00203002BF0D0284B1B6807
:1037F00023F0F8027B681B69DB00254913430B604B
:1038000015E0244B00221A60FFF7D4FB386108E072
:10381000FFF7D0FB02463B69D31A022B01D90323E1
:1038200087E11B4B1B6803F00203002BF0D17B6880
:103830001B6803F00803002B36D07B685B69002B04
:1038400016D0154B01221A60FFF7B4FB386108E06F
:10385000FFF7B0FB02463B69D31A022B01D90323C1
:1038600067E10B4B5B6F03F00203002BF0D01BE012
:10387000094B00221A60FFF79DFB38610EE0FFF74D
:1038800099FB02463B69D31A022B07D9032350E167
:103890000038024000004742800E4742884B5B6F71
:1038A00003F00203002BEAD17B681B6803F00403DA
:1038B000002B00F097800023FB75814B1B6C03F0FD
:1038C0008053002B0FD10023BB607D4B1B6C7C4AC7
:1038D00043F0805313647A4B1B6C03F08053BB603E
:1038E000BB680123FB75774B1B6803F48073002BC7
:1038F00018D1744B1B68734A43F480731360FFF74D
:1039000059FB386108E0FFF755FB02463B69D31AC3
:10391000022B01D903230CE16A4B1B6803F480736B
:10392000002BF0D07B689B68012B06D1644B1B6F8A
:10393000634A43F0010313671CE07B689B68052B17
:103940000CD15F4B1B6F5E4A43F0040313675C4B63
:103950001B6F5B4A43F0010313670BE0584B1B6F6F
:10396000574A23F001031367554B1B6F544A23F04A
:10397000040313677B689B68002B15D0FFF71AFBC5
:1039800038610AE0FFF716FB02463B69D31A41F2A1
:103990008832934201D90323CBE0494B1B6F03F0DC
:1039A0000203002BEED014E0FFF704FB38610AE0BD
:1039B000FFF700FB02463B69D31A41F2883293427B
:1039C00001D90323B5E03E4B1B6F03F00203002B2C
:1039D000EED1FB7D012B05D1394B1B6C384A23F00E
:1039E000805313647B689B69002B00F0A180344BEB
:1039F0009B6803F00C03082B5CD07B689B69022B4F
:103A000041D1314B00221A60FFF7D4FA386108E047
:103A1000FFF7D0FA02463B69D31A022B01D90323E0
:103A200087E0274B1B6803F00073002BF0D17B6805
:103A3000DA697B681B6A1A437B685B6A9B011A43DD
:103A40007B689B6A5B08013B1B041A437B68DB6A4B
:103A50001B061B4913434B601B4B01221A60FFF7E7
:103A6000A9FA386108E0FFF7A5FA02463B69D31AC4
:103A7000022B01D903235CE0114B1B6803F0007398
:103A8000002BF0D054E0104B00221A60FFF792FA9E
:103A9000386108E0FFF78EFA02463B69D31A022B21
:103AA00001D9032345E0064B1B6803F00073002B8C
:103AB000F0D13DE07B689B69012B07D1012338E001
:103AC0000038024000700040600047421B4B5B68BA
:103AD000FB607B689B69012B28D0FB6803F48002A4
:103AE0007B68DB699A4221D1FB6803F03F027B6867
:103AF0001B6A9A421AD1FA6847F6C07313407A6873
:103B0000526A9201934211D1FB6803F440327B6800
:103B10009B6A5B08013B1B049A4207D1FB6803F0D8
:103B200070627B68DB6A1B069A4201D0012300E0C9
:103B3000002318461837BD4680BD00BF003802403C
:103B400080B584B000AF786039607B68002B01D10C
:103B50000123CCE0684B1B6803F007033A689A42E4
:103B60000CD9654B3A68D2B21A70634B1B6803F0EC
:103B700007033A689A4201D00123B8E07B681B68CA
:103B800003F00203002B20D07B681B6803F00403C2
:103B9000002B05D0594B9B68584A43F4E05393607F
:103BA0007B681B6803F00803002B05D0534B9B6810
:103BB000524A43F460439360504B9B6823F0F002F9
:103BC0007B689B684D4913438B607B681B6803F0DF
:103BD0000103002B44D07B685B68012B07D1474B66
:103BE0001B6803F40033002B19D101237FE07B68AD
:103BF0005B68022B03D07B685B68032B07D13F4BCC
:103C00001B6803F00073002B09D101236FE03B4BCD
:103C10001B6803F00203002B01D1012367E0374B3F
:103C20009B6823F003027B685B68344913438B6015
:103C3000FFF7C0F9F8600AE0FFF7BCF90246FB683D
:103C4000D31A41F28832934201D903234FE02B4B20
:103C50009B6803F00C027B685B689B009A42EBD187
:103C6000254B1B6803F007033A689A420CD2224B9B
:103C70003A68D2B21A70204B1B6803F007033A6807
:103C80009A4201D0012332E07B681B6803F00403F1
:103C9000002B08D0194B9B6823F4E0527B68DB684B
:103CA000164913438B607B681B6803F00803002BE5
:103CB00009D0124B9B6823F460427B681B69DB00D0
:103CC0000E4913438B6000F021F802460B4B9B68B2
:103CD0001B0903F00F030A49CB5C22FA03F3094ADC
:103CE0001360094B1B681846FFF720F9002318469C
:103CF0001037BD4680BD00BF003C02400038024086
:103D00002471000824000020580000202DE9B04F45
:103D100094B000AF00237B640023FB6400233B646A
:103D20000023BB64794B9B6803F00C03082B0DD078
:103D3000082B00F2E180002B02D0042B03D0DBE043
:103D4000734BBB64DBE0734BBB64D8E06F4B5B68C9
:103D500003F03F037B646D4B5B6803F48003002B2F
:103D600063D06A4B5B689B090022BB63FA63BB6B41
:103D7000C3F308033B6300237B63D7E90C4522466A
:103D80002B464FF000004FF00001590141EAD2618B
:103D9000500102460B462146511A3961294663EB10
:103DA00001037B614FF000024FF00003D7E904AB41
:103DB00059468B01514643EA916351468A01514667
:103DC000B2EB0108594663EB01094FF000024FF0D6
:103DD00000034FEAC90343EA58734FEAC80290460A
:103DE0009946234618EB0303BB602B4649EB0303BC
:103DF000FB604FF000024FF00003D7E9024529466F
:103E00004B02214643EAD15321464A021046194645
:103E10007B6C0022BB62FA62D7E90A23FCF738FA0E
:103E200002460B461346FB6458E0384B5B689B091F
:103E3000002218461146C0F308033B6200237B6250
:103E4000D7E9088942464B464FF000004FF0000189
:103E5000590141EAD261500102460B464146B2EB9C
:103E6000010A494663EB010B4FF000024FF00003DB
:103E70004FEA8B1343EA9A634FEA8A12B2EB0A04C1
:103E800063EB0B054FF000024FF00003EB0043EA39
:103E90005473E20014461D464346E3183B604B460C
:103EA00045EB03037B604FF000024FF00003D7E9BE
:103EB000004529468B02214643EA915321468A0256
:103EC000104619467B6C0022BB61FA61D7E90623D4
:103ED000FCF7DEF902460B461346FB640B4B5B68AE
:103EE0001B0C03F0030301335B003B64FA6C3B6C77
:103EF000B2FBF3F3BB6402E0054BBB6400BFBB6CD9
:103F000018465037BD46BDE8B08F00BF00380240AC
:103F10000024F40000127A0080B400AF034B1B6849
:103F20001846BD465DF8047B704700BF24000020A2
:103F300080B500AFFFF7F0FF0246054B9B689B0A78
:103F400003F007030349CB5C22FA03F3184680BD54
:103F5000003802403471000880B500AFFFF7DCFF85
:103F60000246054B9B685B0B03F007030349CB5CE0
:103F700022FA03F3184680BD00380240347100086D
:103F800080B582B000AF78607B68002B01D101233F
:103F90007BE07B685B6A002B08D17B685B68B3F5CC
:103FA000827F09D07B680022DA6105E07B6800220D
:103FB0001A617B6800225A617B6800229A627B68E2
:103FC00093F85130DBB2002B06D17B68002283F8D6
:103FD00050207868FCF7AAFE7B68022283F8512003
:103FE0007B681B681A687B681B6822F040021A60B5
:103FF0007B685B6803F482727B689B6803F404430C
:104000001A437B68DB6803F400631A437B681B690F
:1040100003F002031A437B685B6903F001031A4350
:104020007B689B6903F400731A437B68DB6903F0C8
:1040300038031A437B681B6A03F0800342EA0301DA
:104040007B689B6A03F400527B681B680A431A6012
:104050007B689B691B0C03F004017B685B6A03F0BF
:1040600010027B681B680A435A607B681B68DA6928
:104070007B681B6822F40062DA617B6800225A6563
:104080007B68012283F85120002318460837BD467B
:1040900080BD80B588B000AFF860B9603B60134662
:1040A000FB80FEF787FFF861FB887B83FB6893F852
:1040B0005130DBB2012B01D002232AE1BB68002B77
:1040C00002D0FB88002B01D1012322E1FB6893F889
:1040D0005030012B01D102231BE1FB68012283F840
:1040E0005020FB68032283F85120FB6800225A65A8
:1040F000FB68BA681A63FB68FA889A86FB68FA88D4
:10410000DA86FB6800229A63FB6800229A87FB68C4
:104110000022DA87FB6800225A64FB6800221A64D6
:10412000FB689B68B3F5004F0FD1FB681B681A68EA
:10413000FB681B6822F040021A60FB681B681A6863
:10414000FB681B6842F480421A60FB681B681B68AE
:1041500003F04003402B07D0FB681B681A68FB681C
:104160001B6842F040021A60FB68DB68B3F5006F21
:1041700052D1FB685B68002B02D07B8B012B45D1B1
:10418000FB681B6B1A88FB681B68DA60FB681B6B9B
:104190009A1CFB681A63FB68DB8E9BB2013B9AB2E8
:1041A000FB68DA8632E0FB681B689B6803F0020359
:1041B000022B12D1FB681B6B1A88FB681B68DA6044
:1041C000FB681B6B9A1CFB681A63FB68DB8E9BB257
:1041D000013B9AB2FB68DA8618E0FEF7EBFE024676
:1041E000FB69D31A3A689A4203D83B68B3F1FF3FA0
:1041F00002D13B68002B09D1FB68012283F85120D2
:10420000FB68002283F85020032382E0FB68DB8EEA
:104210009BB2002BC7D153E0FB685B68002B02D038
:104220007B8B012B47D1FB681A6BFB681B680C3337
:1042300012781A70FB681B6B5A1CFB681A63FB68C8
:10424000DB8E9BB2013B9AB2FB68DA8633E0FB68F7
:104250001B689B6803F00203022B13D1FB681A6BE7
:10426000FB681B680C3312781A70FB681B6B5A1CB6
:10427000FB681A63FB68DB8E9BB2013B9AB2FB685A
:10428000DA8618E0FEF796FE0246FB69D31A3A6812
:104290009A4203D83B68B3F1FF3F02D13B68002B41
:1042A00009D1FB68012283F85120FB68002283F8C2
:1042B000502003232DE0FB68DB8E9BB2002BC6D180
:1042C000FA693968F86800F059FA0346002B02D001
:1042D000FB6820225A65FB689B68002B0AD10023EB
:1042E0007B61FB681B68DB687B61FB681B689B6804
:1042F0007B617B69FB68012283F85120FB68002207
:1043000083F85020FB685B6D002B01D0012300E097
:10431000002318462037BD4680BD80B58AB000AF67
:10432000F860B9607A607B8001237B62FEF742FE11
:104330003862FB6893F85130FB77FB685B68BB61C0
:104340007B88FB82FB7F012B0CD0BB69B3F5827F9E
:1043500006D1FB689B68002B02D1FB7F042B01D0A8
:1043600002237FE1BB68002B05D07B68002B02D0C5
:104370007B88002B01D1012374E1FB6893F8503056
:10438000012B01D102236DE1FB68012283F850204B
:10439000FB6893F85130DBB2042B03D0FB68052295
:1043A00083F85120FB6800225A65FB687A689A639B
:1043B000FB687A88DA87FB687A889A87FB68BA682C
:1043C0001A63FB687A88DA86FB687A889A86FB68C3
:1043D00000221A64FB6800225A64FB681B681B6891
:1043E00003F04003402B07D0FB681B681A68FB688A
:1043F0001B6842F040021A60FB68DB68B3F5006F8F
:104400007ED1FB685B68002B02D0FB8A012B6CD14C
:10441000FB681B6B1A88FB681B68DA60FB681B6B08
:104420009A1CFB681A63FB68DB8E9BB2013B9AB255
:10443000FB68DA8659E0FB681B689B6803F002039F
:10444000022B1BD1FB68DB8E9BB2002B16D07B6A44
:10445000012B13D1FB681B6B1A88FB681B68DA60A1
:10446000FB681B6B9A1CFB681A63FB68DB8E9BB2B4
:10447000013B9AB2FB68DA8600237B62FB681B680B
:104480009B6803F00103012B19D1FB68DB8F9BB202
:10449000002B14D0FB681B68DA68FB689B6B92B238
:1044A0001A80FB689B6B9A1CFB689A63FB68DB8F26
:1044B0009BB2013B9AB2FB68DA8701237B62FEF76D
:1044C00079FD02463B6AD31A3A6B9A420DD83B6B90
:1044D000B3F1FF3F09D0FB68012283F85120FB684C
:1044E000002283F850200323BCE0FB68DB8E9BB2E4
:1044F000002BA0D1FB68DB8F9BB2002B9BD182E00D
:10450000FB685B68002B02D0FB8A012B71D1FB6832
:104510001A6BFB681B680C3312781A70FB681B6BF4
:104520005A1CFB681A63FB68DB8E9BB2013B9AB294
:10453000FB68DA865DE0FB681B689B6803F002039A
:10454000022B1CD1FB68DB8E9BB2002B17D07B6A41
:10455000012B14D1FB681A6BFB681B680C331278B3
:104560001A70FB681B6B5A1CFB681A63FB68DB8EB6
:104570009BB2013B9AB2FB68DA8600237B62FB6840
:104580001B689B6803F00103012B19D1FB68DB8FCB
:104590009BB2002B14D0FB681B68DA68FB689B6B2E
:1045A000D2B21A70FB689B6B5A1CFB689A63FB685B
:1045B000DB8F9BB2013B9AB2FB68DA8701237B62F7
:1045C000FEF7F8FC02463B6AD31A3A6B9A4203D8CC
:1045D0003B6BB3F1FF3F02D13B6B002B09D1FB6872
:1045E000012283F85120FB68002283F85020032326
:1045F00038E0FB68DB8E9BB2002B9CD1FB68DB8F25
:104600009BB2002B97D13A6A396BF86800F0B6F884
:104610000346002B08D0FB6820225A65FB68002265
:1046200083F8502001231DE0FB689B68002B0AD112
:1046300000233B61FB681B68DB683B61FB681B6810
:104640009B683B613B69FB68012283F85120FB6852
:10465000002283F85020FB685B6D002B01D0012302
:1046600000E0002318462837BD4680BD80B588B0DD
:1046700000AFF860B9603B601346FB71FEF79AFC2F
:104680000246BB6A9B1A3A681344FB61FEF792FC30
:10469000B861394B1B685B011B0DFA6902FB03F320
:1046A0007B6155E03B68B3F1FF3F51D0FEF782FCE0
:1046B0000246BB69D31AFA699A4202D9FB69002BF8
:1046C0003DD1FB681B685A68FB681B6822F0E0025A
:1046D0005A60FB685B68B3F5827F11D1FB689B6809
:1046E000B3F5004F04D0FB689B68B3F5806F07D12A
:1046F000FB681B681A68FB681B6822F040021A609E
:10470000FB689B6AB3F5005F0FD1FB681B681A68F2
:10471000FB681B6822F400521A60FB681B681A6869
:10472000FB681B6842F400521A60FB68012283F8A0
:104730005120FB68002283F85020032318E07B6996
:10474000002B02D10023FB6102E07B69013B7B610E
:10475000FB681B689A68BB681340BA689A420CBF32
:1047600001230023DBB21A46FB799A429AD1002337
:1047700018462037BD4680BD2400002080B588B093
:1047800002AFF860B9607A607B680093BB68012271
:104790000221F868FFF76AFF0346002B07D0FB6889
:1047A0005B6D43F02002FB685A65032332E01B4B2C
:1047B0001B681B4AA2FB03235B0D4FF47A7202FBBA
:1047C00003F37B61FB685B68B3F5827F12D17B6882
:1047D0000093BB6800228021F868FFF747FF03467B
:1047E000002B16D0FB685B6D43F02002FB685A6516
:1047F00003230FE07B69002B0AD07B69013B7B61BF
:10480000FB681B689B6803F08003802BF2D000E0FC
:1048100000BF002318461837BD4680BD2400002085
:10482000819F5E1680B582B000AF78607B68002BF8
:1048300001D1012341E07B6893F83D30DBB2002BCE
:1048400006D17B68002283F83C207868FCF702FDE3
:104850007B68022283F83D207B681A687B680433FA
:104860001946104600F0F8FA7B68012283F84620CA
:104870007B68012283F83E207B68012283F83F2079
:104880007B68012283F840207B68012283F8412065
:104890007B68012283F842207B68012283F8432051
:1048A0007B68012283F844207B68012283F845203D
:1048B0007B68012283F83D20002318460837BD4657
:1048C00080BD000080B485B000AF78607B6893F84D
:1048D0003D30DBB2012B01D001233CE07B6802229A
:1048E00083F83D207B681B681E4A934218D07B6882
:1048F0001B68B3F1804F13D07B681B681A4A934240
:104900000ED07B681B68194A934209D07B681B68EC
:10491000174A934204D07B681B68164A934211D110
:104920007B681B689B6803F00703FB60FB68062B32
:1049300010D07B681B681A687B681B6842F0010214
:104940001A6007E07B681B681A687B681B6842F086
:1049500001021A60002318461437BD465DF8047B37
:10496000704700BF00000140000400400008004004
:10497000000C00400040014080B485B000AF78607A
:104980007B6893F83D30DBB2012B01D0012344E07A
:104990007B68022283F83D207B681B68DA687B68AD
:1049A0001B6842F00102DA607B681B681E4A934272
:1049B00018D07B681B68B3F1804F13D07B681B68ED
:1049C0001A4A93420ED07B681B68194A934209D059
:1049D0007B681B68174A934204D07B681B68164AA1
:1049E000934211D17B681B689B6803F00703FB604F
:1049F000FB68062B10D07B681B681A687B681B68F5
:104A000042F001021A6007E07B681B681A687B6845
:104A10001B6842F001021A60002318461437BD4695
:104A20005DF8047B704700BF0000014000040040B7
:104A300000080040000C00400040014080B483B0FA
:104A400000AF78607B681B68DA687B681B6822F0BF
:104A50000102DA607B681B681A6A41F21113134085
:104A6000002B0FD17B681B681A6A40F24443134045
:104A7000002B07D17B681B681A687B681B6822F0D3
:104A800001021A607B68012283F83D20002318464A
:104A90000C37BD465DF8047B704780B584B000AF2D
:104AA00078607B681B68DB68FB607B681B681B6940
:104AB000BB60BB6803F00203002B20D0FB6803F04F
:104AC0000203002B1BD07B681B686FF002021A6187
:104AD0007B6801221A777B681B689B6903F00303DC
:104AE000002B03D0786800F099F905E0786800F0B1
:104AF0008BF9786800F09CF97B6800221A77BB6814
:104B000003F00403002B20D0FB6803F00403002B08
:104B10001BD07B681B686FF004021A617B6802225D
:104B20001A777B681B689B6903F44073002B03D0E2
:104B3000786800F073F905E0786800F065F9786846
:104B400000F076F97B6800221A77BB6803F008034F
:104B5000002B20D0FB6803F00803002B1BD07B68E0
:104B60001B686FF008021A617B6804221A777B6861
:104B70001B68DB6903F00303002B03D0786800F0A7
:104B80004DF905E0786800F03FF9786800F050F9D9
:104B90007B6800221A77BB6803F01003002B20D03B
:104BA000FB6803F01003002B1BD07B681B686FF0C1
:104BB00010021A617B6808221A777B681B68DB6920
:104BC00003F44073002B03D0786800F027F905E068
:104BD000786800F019F9786800F02AF97B680022FB
:104BE0001A77BB6803F00103002B0CD0FB6803F0BD
:104BF0000103002B07D07B681B686FF001021A616C
:104C00007868FBF797FDBB6803F08003002B0CD09E
:104C1000FB6803F08003002B07D07B681B686FF0F4
:104C200080021A61786800F0AFFABB6803F04003B5
:104C3000002B0CD0FB6803F04003002B07D07B68EF
:104C40001B686FF040021A61786800F0FBF8BB68DF
:104C500003F02003002B0CD0FB6803F02003002B93
:104C600007D07B681B686FF020021A61786800F03B
:104C700081FA00BF1037BD4680BD80B584B000AF5B
:104C8000786039600023FB737B6893F83C30012B1C
:104C900001D10223B4E07B68012283F83C207B68C9
:104CA000022283F83D207B681B689B68BB60BB6861
:104CB00023F07703BB60BB6823F47F43BB607B6852
:104CC0001B68BA689A603B681B68B3F5005F3ED00A
:104CD000B3F5005F00F28780B3F5805F00F0868057
:104CE000B3F5805F7FD8702B1AD0702B7BD8602BE8
:104CF00050D0602B77D8502B3CD0502B73D8402B02
:104D000058D0402B6FD8302B64D0302B6BD8202B51
:104D100060D0202B67D8002B5CD0102B5AD062E0DB
:104D20007B6818683B6899683B685A683B68DB6831
:104D300000F092F97B681B689B68BB60BB6843F01E
:104D40007703BB607B681B68BA689A604FE07B683A
:104D500018683B6899683B685A683B68DB6800F0F4
:104D60007BF97B681B689A687B681B6842F4804209
:104D70009A603CE07B6818683B6859683B68DB6870
:104D80001A4600F0EFF87B681B685021184600F0C7
:104D900048F92CE07B6818683B6859683B68DB6819
:104DA0001A4600F00EF97B681B686021184600F077
:104DB00038F91CE07B6818683B6859683B68DB6819
:104DC0001A4600F0CFF87B681B684021184600F0B7
:104DD00028F90CE07B681A683B681B681946104686
:104DE00000F01FF903E00123FB7300E000BF7B68C4
:104DF000012283F83D207B68002283F83C20FB7B66
:104E000018461037BD4680BD80B483B000AF7860CF
:104E100000BF0C37BD465DF8047B704780B483B09B
:104E200000AF786000BF0C37BD465DF8047B70476B
:104E300080B483B000AF786000BF0C37BD465DF82A
:104E4000047B704780B483B000AF786000BF0C373C
:104E5000BD465DF8047B704780B485B000AF7860D4
:104E600039607B681B68FB607B68374A93420FD0D0
:104E70007B68B3F1804F0BD07B68344A934207D0F4
:104E80007B68334A934203D07B68324A934208D10D
:104E9000FB6823F07003FB603B685B68FA681343B0
:104EA000FB607B68284A93421BD07B68B3F1804F3C
:104EB00017D07B68254A934213D07B68244A9342DB
:104EC0000FD07B68234A93420BD07B68224A9342DF
:104ED00007D07B68214A934203D07B68204A9342E3
:104EE00008D1FB6823F44073FB603B68DB68FA6819
:104EF0001343FB60FB6823F080023B685B6913434C
:104F0000FB603B689A687B68DA623B681A687B687A
:104F10009A627B680C4A934203D13B681A697B68AA
:104F20001A637B681B6843F004027B681A607B6825
:104F300001225A617B68FA681A6000BF1437BD46C7
:104F40005DF8047B704700BF000001400004004092
:104F500000080040000C00400040014000440140B7
:104F60000048014080B487B000AFF860B9607A6053
:104F7000FB681B6A7B61FB681B6A23F00102FB680C
:104F80001A62FB689B693B613B6923F0F0033B615C
:104F90007B681B013A6913433B617B6923F00A0379
:104FA0007B617A69BB6813437B61FB683A699A61EC
:104FB000FB687A691A6200BF1C37BD465DF8047B46
:104FC000704780B487B000AFF860B9607A60FB6862
:104FD0001B6A7B61FB681B6A23F01002FB681A6284
:104FE000FB689B693B613B6923F470433B617B68D1
:104FF0001B033A6913433B617B6923F0A0037B6188
:10500000BB681B017A6913437B61FB683A699A614B
:10501000FB687A691A6200BF1C37BD465DF8047BE5
:10502000704780B485B000AF786039607B689B685A
:10503000FB60FB6823F07003FB603A68FB68134376
:1050400043F00703FB607B68FA689A6000BF14377F
:10505000BD465DF8047B704780B487B000AFF86050
:10506000B9607A603B60FB689B687B617B6923F475
:105070007F437B613B681A027B681A43BB6813431A
:105080007A6913437B61FB687A699A6000BF1C37B9
:10509000BD465DF8047B704780B485B000AF786092
:1050A00039607B6893F83C30012B01D1022350E03A
:1050B0007B68012283F83C207B68022283F83D2034
:1050C0007B681B685B68FB607B681B689B68BB60D8
:1050D000FB6823F07003FB603B681B68FA681343AE
:1050E000FB607B681B68FA685A607B681B681C4A17
:1050F000934218D07B681B68B3F1804F13D07B6854
:105100001B68184A93420ED07B681B68164A93426C
:1051100009D07B681B68154A934204D07B681B68E2
:10512000134A93420CD1BB6823F08003BB603B68F9
:105130005B68BA681343BB607B681B68BA689A6097
:105140007B68012283F83D207B68002283F83C20A5
:10515000002318461437BD465DF8047B704700BF36
:10516000000001400004004000080040000C004026
:105170000040014080B483B000AF786000BF0C37BE
:10518000BD465DF8047B704780B483B000AF7860A3
:1051900000BF0C37BD465DF8047B704780B582B018
:1051A00000AF78607B68002B01D1012342E07B686F
:1051B00093F84130DBB2002B06D17B68002283F8E4
:1051C00040207868FCF7A2F97B68242283F841200C
:1051D0007B681B68DA687B681B6822F40052DA601F
:1051E000786800F0EFFC7B681B681A697B681B68B5
:1051F00022F490421A617B681B685A697B681B68BD
:1052000022F02A025A617B681B68DA687B681B6897
:1052100042F40052DA607B6800225A647B682022E4
:1052200083F841207B68202283F842207B6800229B
:105230005A63002318460837BD4680BD80B584B048
:1052400000AFF860B9601346FB80FB6893F842300A
:10525000DBB2202B12D1BB68002B02D0FB88002BC5
:1052600001D101230BE0FB6800221A63FB881A4678
:10527000B968F86800F0D2FA034600E00223184645
:105280001037BD4680BD000080B5BAB000AF786071
:105290007B681B681B68C7F8E4307B681B68DB68A9
:1052A000C7F8E0307B681B685B69C7F8DC30002317
:1052B000C7F8D8300023C7F8D430D7F8E43003F06B
:1052C0000F03C7F8D830D7F8D830002B0FD1D7F854
:1052D000E43003F02003002B09D0D7F8E03003F0CE
:1052E0002003002B03D0786800F0AEFB73E2D7F800
:1052F000D830002B00F0DE80D7F8DC3003F001035B
:10530000002B06D1D7F8E03003F49073002B00F0A7
:10531000D180D7F8E43003F00103002B0BD0D7F88D
:10532000E03003F48073002B05D07B685B6C43F0A6
:1053300001027B685A64D7F8E43003F00403002BC1
:105340000BD0D7F8DC3003F00103002B05D07B68CD
:105350005B6C43F002027B685A64D7F8E43003F0D8
:105360000203002B0BD0D7F8DC3003F00103002B35
:1053700005D07B685B6C43F004027B685A64D7F805
:10538000E43003F00803002B11D0D7F8E03003F02D
:105390002003002B05D1D7F8DC3003F00103002BEC
:1053A00005D07B685B6C43F008027B685A647B68BD
:1053B0005B6C002B00F00A82D7F8E43003F0200386
:1053C000002B08D0D7F8E03003F02003002B02D0E8
:1053D000786800F039FB7B681B685B6903F0400369
:1053E000402B0CBF01230023DBB2C7F8D4307B680D
:1053F0005B6C03F00803002B03D1D7F8D430002BEB
:105400004FD0786800F044FA7B681B685B6903F052
:105410004003402B41D17B681B681433C7F89C3094
:10542000D7F89C3053E8003FC7F89830D7F8983049
:1054300023F04003C7F8D0307B681B681433D7F8DB
:10544000D020C7F8A820C7F8A430D7F8A410D7F800
:10545000A82041E80023C7F8A030D7F8A030002BDF
:10546000D9D17B68DB6B002B13D07B68DB6B8A4A5E
:105470001A657B68DB6B1846FDF729FF0346002B96
:1054800016D07B68DB6B1B6D7A68D26B1046984731
:105490000EE0786800F0ACF90AE0786800F0A8F94E
:1054A00006E0786800F0A4F97B6800225A648DE178
:1054B00000BF8BE17B681B6B012B40F06781D7F845
:1054C000E43003F01003002B00F06081D7F8E030E7
:1054D00003F01003002B00F059810023BB607B68B0
:1054E0001B681B68BB607B681B685B68BB60BB6834
:1054F0007B681B685B6903F04003402B40F0CE8063
:105500007B68DB6B1B685B68A7F8BE30B7F8BE3002
:10551000002B00F0A9807B689B8DB7F8BE209A42D3
:1055200080F0A2807B68B7F8BE20DA857B68DB6BF1
:10553000DB69B3F5807F00F088807B681B680C33E3
:10554000C7F88830D7F8883053E8003FC7F8843070
:10555000D7F8843023F48073C7F8B8307B681B68B1
:105560000C33D7F8B820C7F89420C7F89030D7F894
:105570009010D7F8942041E80023C7F88C30D7F872
:105580008C30002BD9D17B681B6814337B677B6F11
:1055900053E8003F3B673B6F23F00103C7F8B4308B
:1055A0007B681B681433D7F8B420C7F88020FB67EA
:1055B000F96FD7F8802041E80023BB67BB6F002B51
:1055C000E1D17B681B6814333B663B6E53E8003FB8
:1055D000FB65FB6D23F04003C7F8B0307B681B68A8
:1055E0001433D7F8B020FA66BB66B96EFA6E41E89C
:1055F00000237B667B6E002BE3D17B68202283F83F
:1056000042207B6800221A637B681B680C33FB64B2
:10561000FB6C53E8003FBB64BB6C23F01003C7F87E
:10562000AC307B681B680C33D7F8AC20BA657B655F
:10563000796DBA6D41E800233B653B6D002BE3D1EA
:105640007B68DB6B1846FDF7D2FD7B6802225A634C
:105650007B689A8D7B68DB8D9BB2D31A9BB219460F
:10566000786800F0CFF8B3E07B689B8DB7F8BE2078
:105670009A4240F0AD807B68DB6BDB69B3F5807FDD
:1056800040F0A6807B6802225A637B689B8D194696
:10569000786800F0B7F89BE0575900087B689A8D4E
:1056A0007B68DB8D9BB2D31AA7F8CE307B68DB8D8D
:1056B0009BB2002B00F08E80B7F8CE30002B00F0AC
:1056C00089807B681B680C33BB63BB6B53E8003F6E
:1056D0007B637B6B23F49073C7F8C8307B681B68CF
:1056E0000C33D7F8C8207A643B64396C7A6C41E893
:1056F0000023FB63FB6B002BE3D17B681B68143337
:105700007B627B6A53E8003F3B623B6A23F0010304
:10571000C7F8C4307B681B681433D7F8C4203A63D9
:10572000FB62F96A3A6B41E80023BB62BB6A002B5B
:10573000E3D17B68202283F842207B6800221A6331
:105740007B681B680C333B613B6953E8003FFB609F
:10575000FB6823F01003C7F8C0307B681B680C336C
:10576000D7F8C020FA61BB61B969FA6941E8002342
:105770007B617B69002BE3D17B6802225A63B7F817
:10578000CE301946786800F03DF823E0D7F8E430D1
:1057900003F08003002B09D0D7F8E03003F080033A
:1057A000002B03D0786800F0E7F814E0D7F8E43075
:1057B00003F04003002B0ED0D7F8E03003F0400395
:1057C000002B08D0786800F027F904E000BF02E061
:1057D00000BF00E000BFE837BD4680BD80B483B0A5
:1057E00000AF786000BF0C37BD465DF8047B7047A2
:1057F00080B483B000AF786000BF0C37BD465DF861
:10580000047B704780B483B000AF78600B467B8028
:1058100000BF0C37BD465DF8047B704780B485B08F
:1058200000AFF860B9601346FB80FB68BA689A6203
:10583000FB68FA889A85FB68FA88DA85FB6800229B
:105840005A64FB68222283F84220FB681B69002B04
:1058500007D0FB681B68DA68FB681B6842F480723B
:10586000DA60FB681B685A69FB681B6842F001023A
:105870005A61FB681B68DA68FB681B6842F020020B
:10588000DA60002318461437BD465DF8047B704784
:1058900080B495B000AF78607B681B680C337B6385
:1058A0007B6B53E8003F3B633B6B23F49073FB64DB
:1058B0007B681B680C33FA6C3A64FB63F96B3A6CD7
:1058C00041E80023BB63BB6B002BE5D17B681B6801
:1058D00014333B623B6A53E8003FFB61FB6923F0F2
:1058E0000103BB647B681B681433BA6CFA62BB6249
:1058F000B96AFA6A41E800237B627B6A002BE5D132
:105900007B681B6B012B19D17B681B680C33FB6018
:10591000FB6853E8003FBB60BB6823F010037B6467
:105920007B681B680C337A6CBA617B617969BA69F0
:1059300041E800233B613B69002BE5D17B682022D5
:1059400083F842207B6800221A6300BF5437BD46AB
:105950005DF8047B704780B584B000AF78607B68E9
:105960009B6BFB60FB680022DA85F868FFF740FF5D
:1059700000BF1037BD4680BD80B485B000AF7860F1
:105980007B6893F84130DBB2212B3ED17B689B686A
:10599000B3F5805F14D17B681B69002B10D17B6845
:1059A0001B6AFB60FB681B881A467B681B68C2F396
:1059B00008025A607B681B6A9A1C7B681A6208E0BE
:1059C0007B681B6A591C7A6811621A787B681B68AD
:1059D0005A607B68DB8C9BB2013B9BB27A681946AC
:1059E000D184002B0FD17B681B68DA687B681B6849
:1059F00022F08002DA607B681B68DA687B681B68CB
:105A000042F04002DA60002300E002231846143717
:105A1000BD465DF8047B704780B582B000AF78600A
:105A20007B681B68DA687B681B6822F04002DA60DA
:105A30007B68202283F841207868FFF7CFFE00239F
:105A400018460837BD4680BD80B58CB000AF786081
:105A50000023FB620023BB627B6893F84230DBB219
:105A6000222B40F0AA807B689B68B3F5805F15D13C
:105A70007B681B69002B11D17B689B6ABB627B68CA
:105A80001B685B689BB2C3F308039AB2BB6A1A80B7
:105A90007B689B6A9A1C7B689A6224E07B689B6A9D
:105AA000FB627B689B68B3F5805F07D07B689B686F
:105AB000002B0AD17B681B69002B06D17B681B6811
:105AC0005B68DAB2FB6A1A7008E07B681B685B6887
:105AD000DBB203F07F03DAB2FB6A1A707B689B6A61
